:100000004DC0D2C166C065C064C063C062C061C07B
:1000100060C05FC05EC05DC05CC05BC05AC009020A
:100020002200010100800A09040000010300000011
:100030000921010100012217000705810308000AB8
:100040001201100100000008C016DB2700010102A8
:100050000001120357006500610072006C00690026
:100060006E006B001C037700700064004000780095
:100070007300340061006C006C002E006E006C0098
:100080000403090405010906A1019501750815007D
:1000900025FF050C190029FF8100C00011241FBE97
:1000A000CFE5D2E0DEBFCDBF10E0A0E6B0E0E0E7F4
:1000B000F8E002C005900D92A437B107D9F710E01F
:1000C000A4E7B0E001C01D92A13BB107E1F732D334
:1000D000CDC396CFCF93C62F2091860024FF07C0B3
:1000E0002091870038E823272093870003C02AE562
:1000F00020938600DC01E8E8F0E09C2F9E0F8D91B4
:100100008193892F8E1B1816D4F36C2F88E890E00A
:1001100034D1CC5FC0938600CF910895CF93DF9305
:1001200080919700835087FDA3C090919400209107
:1001300093002D3209F09AC0883009F097C0CCE0C6
:10014000D0E0C91BD109C556DF4F83EC80937B00FB
:100150008AE580936100109275008881807619F09D
:10016000CE0180D27AC09A81109284008981811157
:1001700006C01092850024E830E082E06AC0853035
:1001800019F49093980062C0863009F049C08B81C1
:10019000813019F480E490E024C0823041F48EE193
:1001A00090E0909396008093950082E235C0833072
:1001B000F1F4911108C080E890E09093960080934C
:1001C000950084E029C0913041F484E690E090935A
:1001D0009600809395008CE11FC09230E1F482E597
:1001E00090E0909396008093950082E115C0813253
:1001F00041F480E390E0909396008093950089E02D
:100200000BC0823241F484E890E090939600809392
:10021000950087E101C080E090E4909375001DC0D7
:10022000883069F0893019F490939A000FC08A30B1
:1002300049F08B3059F48BE48093870007C02AE99A
:1002400030E002C024E830E081E003C024E830E080
:1002500080E030939600209395009F81911104C017
:100260009E81981708F4892F809360001092970060
:100270008091610084FF46C0809160008F3F09F447
:1002800041C0C82F893008F0C8E08C1B8093600003
:1002900080917B0098E8892780937B00CC2331F103
:1002A00020919500309196008091750086FF0BC0DB
:1002B000ACE7B0E0F9018C2F8A0F94919D933196B1
:1002C0008A13FBCF09C0D901ECE7F0E08C2F8E0F29
:1002D0009D9191938E13FCCF8FEF8C0F90E0019640
:1002E000820F931F90939600809395006C2F8CE75C
:1002F00090E043D0CC5FCC3019F08FEF809360005A
:10030000C093610084E196B3957031F48150D9F7C0
:100310001092980010929200C1E08111C0E080918B
:1003200074008C1729F0C11101C0C0D1C0937400B2
:10033000DF91CF91089585B7836085BF8BB78064C7
:100340008BBF8BE4809387008AE5809386000895B5
:10035000A82FB92F80E090E041E050EA609530E0AE
:1003600009C02D9182279795879510F084279527AE
:10037000305EC8F36F5FA8F30895EADF8D939D9315
:100380000895A6E088279927AA9569F00197E1F3D7
:10039000B099FCCFB09BFECF81E09927A6B3019620
:1003A00011F0A570D9F70895CF93CFB7CF93C39528
:1003B000B09BE9F7B09B0BC0B09B09C0B09B07C0D6
:1003C000B09B05C0B09B03C0B09B01C0D5C00F92CD
:1003D000DF93C0919400DD27C556DF4F012EB09BFF
:1003E00003C0DF910F90E6CF2F930F931F934F938E
:1003F0002FEF4F6F06B300FB20F95F933F9350E060
:100400003BE065C016B30126502950FDC89556B390
:10041000012700FB25F92F7306B3B1F050271027F1
:1004200010FB26F906B22230F0F000C016B3012707
:1004300000FB27F90126502906B22430E8F54F7752
:10044000206816B30000F6CF50274F7D206206B219
:10045000102F000000C006B300265029102710FB03
:1004600026F906B2E2CF4F7B06B3206400C0DACF94
:1004700001265029157006B269F14E7F2160012FC7
:1004800016B328C0002650294D7F06B22260102FD7
:1004900029C0012650294B7F06B22460012F2DC0B0
:1004A00016B301265029477F2860000006B22EC0EF
:1004B0004F7E06B3206130C0422706B34993002621
:1004C0005029102706B24FEF10FB20F9297F16B3F1
:1004D00079F2157059F10126502906B2012700FB67
:1004E00021F9237F06B371F2002650293150D0F054
:1004F00006B2102710FB22F9277E16B351F201260F
:100500005029012700FB06B223F92F7C49F2000095
:1005100006B3102710FB24F90026502906B22F79C4
:1005200039F270CF10E41ABF002719C03B50319543
:10053000C31BD04010E41ABF0881033C09F10B34FF
:10054000F9F0209192001981110F1213EDCF4A8119
:10055000441F093651F10D3211F0013E29F7009385
:1005600099003F915F914F911F910F912F91DF91D2
:100570000F90CAB7C6FD1BCFCF91CFBFCF911895B3
:1005800020919900222369F310919700112379F5A6
:1005900034307AF1309397002093930010919400B7
:1005A0003BE0311B3093940024C000919700013050
:1005B000F4F40AE54F7049F43091610034FD1AC03B
:1005C00000936100CBE7D0E019C03091860034FD84
:1005D00011C000938600C7E8D0E010C0052710E0E6
:1005E00000C021C0052710E0C89508BB14C03AE53B
:1005F00001C032ED032EC0E0D0E032E017B3156049
:10060000C09A08B317BB55E020E84FEF20FF05273D
:1006100008BB279517951C3F28F700004552B0F7F7
:1006200020FF0527279508BB17951C3FB8F6299191
:100630003A9561F70A7F10919800110F08BBC250DC
:10064000D04011F01093920010E41ABF016017B36C
:100650001A7F402F4A7F54E05A95F1F708BB17BB29
:1006600048BB7FCFFC018AE790E09093960080938F
:100670009500808180768032B9F48181813029F4BF
:100680009091770090937A000895823041F489E741
:1006900090E0909396008093950081E008958A30D1
:1006A00019F483818093790080E00895DF92EF92BE
:1006B000FF920F931F93CF93DF93F894C8E0D0E09D
:1006C000F12C80E8E82EDE2CDF0CD1BE5ADE8C0146
:1006D000043389E018070CF4FD2CE6942197209749
:1006E00091F78FEF8F0D81BFCF2DD0E0219681B78D
:1006F00090E0C817D9078CF044DE8453994097FFE7
:1007000003C09195819591098017910714F4F1B672
:100710008C0181B78F5F81BFEACFF1BE789461B75A
:1007200080E090E0DF91CF911F910F91FF90EF90CB
:10073000DF908EC080E090E083D08F3F09F081BFD2
:10074000B89A84E1E2EBF1EF3197F1F700C00000D5
:100750008150C1F7B8982EE088E190E00FB6F89488
:10076000A89581BD0FBE21BD8BE080BF82E087B917
:1007700087E886B9E0DD7894C0E0D1E014E0A89580
:10078000CDDC8091860084FF0FC0809177008111BD
:1007900002C0CC2349F080937A0010927700CD27D5
:1007A00061E08AE790E096DC08B602FE0DC018BF53
:1007B000809176008F5F809376008F3028F01092C2
:1007C0007600D0937800369A809178008823B9F229
:1007D0003699D5CF1092780084B195B196958795CA
:1007E00096958795282FE4E6F0E080E090E0DF0121
:1007F00011973C91231768F03081321750F063E075
:1008000070E00DD08E599F4FFC018081809377005E
:10081000B6CF019633968630910549F7B0CF0024C4
:10082000552704C0080E591F880F991F009729F0FB
:1008300076956795B8F37105B9F7802D952F0895D2
:10084000E199FECF9FBB8EBBE09A99278DB30895A7
:10085000262FE199FECF1CBA9FBB8EBB2DBB0FB6D6
:10086000F894E29AE19A0FBE01960895F894FFCFAA
:10087000FF5A00E9FFEA4D5DB4748CCDA3C3B38F7A
:04088000ABE9333D70
:00000001FF
