:1000000055C0DAC16EC06DC06CC06BC06AC069C03B
:1000100068C067C066C065C064C063C062C00902D2
:100020002200010100800A09040000010300000011
:100030000921010100012227000705810308000AA8
:100040001201100100000008C016DB2700010102A8
:100050000001120357006500610072006C00690026
:100060006E006B001C037700700064004000780095
:100070007300340061006C006C002E006E006C0098
:100080000403090405010906A1019501750815007D
:1000900025FF050C190029FF810095017508150041
:1000A00025650507190029658100C00011241FBEC0
:1000B000CFE5D2E0DEBFCDBF10E0A0E6B0E0E4E9DE
:1000C000F8E002C005900D92A437B107D9F710E00F
:1000D000A4E7B0E001C01D92A23BB107E1F736D31F
:1000E000D7C38ECFCF93C62F2091870024FF07C0A0
:1000F0002091880038E823272093880003C02AE550
:1001000020938700DC01E9E8F0E09C2F9E0F8D91A1
:100110008193892F8E1B1816D4F36C2F89E890E0F9
:1001200034D1CC5FC0938700CF910895CF93DF93F4
:1001300080919800835087FDA3C0909195002091F5
:1001400094002D3209F09AC0883009F097C0CCE0B5
:10015000D0E0C91BD109C456DF4F83EC80937C00EB
:100160008AE580936000109274008881807619F08F
:10017000CE0180D27AC09A81109285008981811146
:1001800006C01092860025E830E082E06AC0853023
:1001900019F49093990062C0863009F049C08B81B0
:1001A000813019F480E490E024C0823041F48EE183
:1001B00090E0909397008093960082E235C0833060
:1001C000F1F4911108C080E890E09093970080933B
:1001D000960084E029C0913041F484E690E0909349
:1001E0009700809396008CE11FC09230E1F482E585
:1001F00090E0909397008093960082E115C0813241
:1002000041F480E390E0909397008093960089E01A
:100210000BC0823241F484E890E090939700809381
:10022000960087E201C080E090E4909374001DC0C6
:10023000883069F0893019F490939B000FC08A30A0
:1002400049F08B3059F48BE48093880007C02BE988
:1002500030E002C025E830E081E003C025E830E06E
:1002600080E030939700209396009F81911104C005
:100270009E81981708F4892F80936100109298004E
:100280008091600084FF46C0809161008F3F09F437
:1002900041C0C82F893008F0C8E08C1B80936100F2
:1002A00080917C0098E8892780937C00CC2331F1F1
:1002B00020919600309197008091740086FF0BC0CA
:1002C000F901ADE7B0E08C2F8A0F94919D933196A0
:1002D0008A13FBCF09C0D901EDE7F0E08C2F8E0F18
:1002E0009D9191938E13FCCF8C2F815090E00196BD
:1002F000820F931F90939700809396006C2F8DE749
:1003000090E043D0CC5FCC3019F08FEF8093610048
:10031000C093600084E196B3957031F48150D9F7B1
:100320001092990010929300C1E08111C0E0809179
:1003300075008C1729F0C11101C0C3D1C09375009D
:10034000DF91CF91089585B7836085BF8BB78064B7
:100350008BBF8BE4809388008AE5809387000895A3
:10036000A82FB92F80E090E041E050EA609530E09E
:1003700009C02D9182279795879510F0842795279E
:10038000305EC8F36F5FA8F30895EADF8D939D9305
:100390000895A6E088279927AA9569F00197E1F3C7
:1003A000B099FCCFB09BFECF81E09927A6B3019610
:1003B00011F0A570D9F70895CF93CFB7CF93C39518
:1003C000B09BE9F7B09B0BC0B09B09C0B09B07C0C6
:1003D000B09B05C0B09B03C0B09B01C0D5C00F92BD
:1003E000DF93C0919500DD27C456DF4F012EB09BEF
:1003F00003C0DF910F90E6CF2F930F931F934F937E
:100400002FEF4F6F06B300FB20F95F933F9350E04F
:100410003BE065C016B30126502950FDC89556B380
:10042000012700FB25F92F7306B3B1F050271027E1
:1004300010FB26F906B22230F0F000C016B30127F7
:1004400000FB27F90126502906B22430E8F54F7742
:10045000206816B30000F6CF50274F7D206206B209
:10046000102F000000C006B300265029102710FBF3
:1004700026F906B2E2CF4F7B06B3206400C0DACF84
:1004800001265029157006B269F14E7F2160012FB7
:1004900016B328C0002650294D7F06B22260102FC7
:1004A00029C0012650294B7F06B22460012F2DC0A0
:1004B00016B301265029477F2860000006B22EC0DF
:1004C0004F7E06B3206130C0422706B34993002611
:1004D0005029102706B24FEF10FB20F9297F16B3E1
:1004E00079F2157059F10126502906B2012700FB57
:1004F00021F9237F06B371F2002650293150D0F044
:1005000006B2102710FB22F9277E16B351F20126FE
:100510005029012700FB06B223F92F7C49F2000085
:1005200006B3102710FB24F90026502906B22F79B4
:1005300039F270CF10E41ABF002719C03B50319533
:10054000C31BD04010E41ABF0881033C09F10B34EF
:10055000F9F0209193001981110F1213EDCF4A8108
:10056000441F093651F10D3211F0013E29F7009375
:100570009A003F915F914F911F910F912F91DF91C1
:100580000F90CAB7C6FD1BCFCF91CFBFCF911895A3
:1005900020919A00222369F310919800112379F594
:1005A00034307AF1309398002093940010919500A4
:1005B0003BE0311B3093950024C00091980001303E
:1005C000F4F40AE54F7049F43091600034FD1AC02C
:1005D00000936000CCE7D0E019C03091870034FD73
:1005E00011C000938700C8E8D0E010C0052710E0D4
:1005F00000C021C0052710E0C89508BB14C03AE52B
:1006000001C032ED032EC0E0D0E032E017B3156038
:10061000C09A08B317BB55E020E84FEF20FF05272D
:1006200008BB279517951C3F28F700004552B0F7E7
:1006300020FF0527279508BB17951C3FB8F6299181
:100640003A9561F70A7F10919900110F08BBC250CB
:10065000D04011F01093930010E41ABF016017B35B
:100660001A7F402F4A7F54E05A95F1F708BB17BB19
:1006700048BB7FCFFC0186E790E090939700809382
:100680009600808180768032D1F48181813041F47E
:1006900080917900809376001092770082E008952F
:1006A000823041F488E790E0909397008093960021
:1006B00081E008958A3019F483818093780080E086
:1006C0000895DF92EF92FF920F931F93CF93DF93E2
:1006D000F89408E010E0F12C80E8E82EDE2CDF0C26
:1006E000D1BE57DEEC01C43389E0D8070CF4FD2CF1
:1006F000E6940150110991F78F2D815081BF0F2D84
:1007000010E00F5F1F4F10C044DE8453994097FFE5
:1007100003C09195819591098C179D0714F4F1B64A
:10072000EC0181B78F5F81BF81B790E0081719078F
:100730005CF7F1BE789461B780E090E0DF91CF91F3
:100740001F910F91FF90EF90DF9094C080E090E0B8
:1007500089D08F3F09F081BFB89A84E1E2EBF1EFD5
:100760003197F1F700C000008150C1F7B8982EE032
:1007700088E190E00FB6F894A89581BD0FBE21BD29
:1007800086E080BD8BE080BF82E087B987E886B9CC
:10079000DADD7894C0E0D1E014E0A895C7DC809160
:1007A000870084FF11C080917900811102C0CC23A1
:1007B00059F0809376001092770010927900CD273F
:1007C00062E086E790E08EDC08B602FE0DC018BF3E
:1007D00080917A008F5F80937A008F3028F010929A
:1007E0007A00D0937B00369A80917B008823A9F20F
:1007F0003699D3CF10927B0084B195B196958795A9
:1008000096958795E4E6F0E020E030E0DF0111976F
:100810009C91891770F09081981758F0C90163E096
:1008200070E00ED08E599F4FFC018081809379003B
:10083000B4CF2F5F3F4F33962630310539F7ADCF18
:100840005527002480FF02C0060E571F660F771F32
:100850006115710521F096958795009799F7952F69
:10086000802D0895E199FECF9FBB8EBBE09A99271A
:100870008DB30895262FE199FECF1CBA9FBB8EBB86
:100880002DBB0FB6F894E29AE19A0FBE0196089537
:04089000F894FFCF0A
:100894005AFF00E9FFEA4D5DB4748CCDA3C3B38F56
:0408A400ABE9333D4C
:00000001FF
